{
  "contractName": "Certifier",
  "abi": [
    {
      "constant": true,
      "inputs": [],
      "name": "name",
      "outputs": [
        {
          "name": "",
          "type": "string"
        }
      ],
      "payable": false,
      "stateMutability": "view",
      "type": "function"
    },
    {
      "constant": true,
      "inputs": [],
      "name": "owner",
      "outputs": [
        {
          "name": "",
          "type": "address"
        }
      ],
      "payable": false,
      "stateMutability": "view",
      "type": "function"
    },
    {
      "inputs": [],
      "payable": false,
      "stateMutability": "nonpayable",
      "type": "constructor"
    },
    {
      "constant": true,
      "inputs": [],
      "name": "isOwner",
      "outputs": [
        {
          "name": "",
          "type": "bool"
        }
      ],
      "payable": false,
      "stateMutability": "view",
      "type": "function"
    },
    {
      "constant": false,
      "inputs": [
        {
          "name": "_name",
          "type": "string"
        }
      ],
      "name": "setName",
      "outputs": [],
      "payable": false,
      "stateMutability": "nonpayable",
      "type": "function"
    },
    {
      "constant": true,
      "inputs": [],
      "name": "getName",
      "outputs": [
        {
          "name": "",
          "type": "string"
        }
      ],
      "payable": false,
      "stateMutability": "view",
      "type": "function"
    },
    {
      "constant": false,
      "inputs": [
        {
          "name": "_code",
          "type": "bytes32"
        },
        {
          "name": "_name",
          "type": "string"
        },
        {
          "name": "_cost",
          "type": "uint256"
        },
        {
          "name": "_duration",
          "type": "uint256"
        },
        {
          "name": "_threshold",
          "type": "uint256"
        },
        {
          "name": "_codes",
          "type": "bytes32[]"
        }
      ],
      "name": "addCourse",
      "outputs": [],
      "payable": false,
      "stateMutability": "nonpayable",
      "type": "function"
    },
    {
      "constant": true,
      "inputs": [
        {
          "name": "_code",
          "type": "bytes32"
        }
      ],
      "name": "getCourse",
      "outputs": [
        {
          "name": "",
          "type": "string"
        },
        {
          "name": "",
          "type": "uint256"
        },
        {
          "name": "",
          "type": "uint256"
        },
        {
          "name": "",
          "type": "uint256"
        },
        {
          "name": "",
          "type": "bytes32[]"
        }
      ],
      "payable": false,
      "stateMutability": "view",
      "type": "function"
    },
    {
      "constant": true,
      "inputs": [],
      "name": "getCourses",
      "outputs": [
        {
          "name": "",
          "type": "bytes32[]"
        },
        {
          "name": "",
          "type": "uint256[]"
        },
        {
          "name": "",
          "type": "uint256[]"
        },
        {
          "name": "",
          "type": "uint256[]"
        }
      ],
      "payable": false,
      "stateMutability": "view",
      "type": "function"
    },
    {
      "constant": false,
      "inputs": [
        {
          "name": "_code",
          "type": "bytes32"
        },
        {
          "name": "_fname",
          "type": "string"
        },
        {
          "name": "_lname",
          "type": "string"
        },
        {
          "name": "_age",
          "type": "uint256"
        },
        {
          "name": "_email",
          "type": "string"
        }
      ],
      "name": "subscribe",
      "outputs": [],
      "payable": true,
      "stateMutability": "payable",
      "type": "function"
    }
  ],
  "bytecode": "0x608060405234801561001057600080fd5b50336000806101000a81548173ffffffffffffffffffffffffffffffffffffffff021916908373ffffffffffffffffffffffffffffffffffffffff1602179055506110fd806100606000396000f300608060405260043610610099576000357c0100000000000000000000000000000000000000000000000000000000900463ffffffff16806306fdde031461009e57806317d7de7c1461012e5780638da5cb5b146101be5780638f32d59b14610215578063987b57b914610244578063bd11bc511461034b578063c47f00271461044b578063cc126479146104b4578063fdf8aad3146105f8575b600080fd5b3480156100aa57600080fd5b506100b36106d0565b6040518080602001828103825283818151815260200191508051906020019080838360005b838110156100f35780820151818401526020810190506100d8565b50505050905090810190601f1680156101205780820380516001836020036101000a031916815260200191505b509250505060405180910390f35b34801561013a57600080fd5b5061014361076e565b6040518080602001828103825283818151815260200191508051906020019080838360005b83811015610183578082015181840152602081019050610168565b50505050905090810190601f1680156101b05780820380516001836020036101000a031916815260200191505b509250505060405180910390f35b3480156101ca57600080fd5b506101d3610810565b604051808273ffffffffffffffffffffffffffffffffffffffff1673ffffffffffffffffffffffffffffffffffffffff16815260200191505060405180910390f35b34801561022157600080fd5b5061022a610835565b604051808215151515815260200191505060405180910390f35b34801561025057600080fd5b50610273600480360381019080803560001916906020019092919050505061088c565b604051808060200186815260200185815260200184815260200180602001838103835288818151815260200191508051906020019080838360005b838110156102c95780820151818401526020810190506102ae565b50505050905090810190601f1680156102f65780820380516001836020036101000a031916815260200191505b50838103825284818151815260200191508051906020019060200280838360005b83811015610332578082015181840152602081019050610317565b5050505090500197505050505050505060405180910390f35b6104496004803603810190808035600019169060200190929190803590602001908201803590602001908080601f0160208091040260200160405190810160405280939291908181526020018383808284378201915050505050509192919290803590602001908201803590602001908080601f016020809104026020016040519081016040528093929190818152602001838380828437820191505050505050919291929080359060200190929190803590602001908201803590602001908080601f01602080910402602001604051908101604052809392919081815260200183838082843782019150505050505091929192905050506109d1565b005b34801561045757600080fd5b506104b2600480360381019080803590602001908201803590602001908080601f0160208091040260200160405190810160405280939291908181526020018383808284378201915050505050509192919290505050610b91565b005b3480156104c057600080fd5b506104c9610c06565b6040518080602001806020018060200180602001858103855289818151815260200191508051906020019060200280838360005b838110156105185780820151818401526020810190506104fd565b50505050905001858103845288818151815260200191508051906020019060200280838360005b8381101561055a57808201518184015260208101905061053f565b50505050905001858103835287818151815260200191508051906020019060200280838360005b8381101561059c578082015181840152602081019050610581565b50505050905001858103825286818151815260200191508051906020019060200280838360005b838110156105de5780820151818401526020810190506105c3565b505050509050019850505050505050505060405180910390f35b34801561060457600080fd5b506106ce6004803603810190808035600019169060200190929190803590602001908201803590602001908080601f016020809104026020016040519081016040528093929190818152602001838380828437820191505050505050919291929080359060200190929190803590602001909291908035906020019092919080359060200190820180359060200190808060200260200160405190810160405280939291908181526020018383602002808284378201915050505050509192919290505050610e01565b005b60018054600181600116156101000203166002900480601f0160208091040260200160405190810160405280929190818152602001828054600181600116156101000203166002900480156107665780601f1061073b57610100808354040283529160200191610766565b820191906000526020600020905b81548152906001019060200180831161074957829003601f168201915b505050505081565b606060018054600181600116156101000203166002900480601f0160208091040260200160405190810160405280929190818152602001828054600181600116156101000203166002900480156108065780601f106107db57610100808354040283529160200191610806565b820191906000526020600020905b8154815290600101906020018083116107e957829003601f168201915b5050505050905090565b6000809054906101000a900473ffffffffffffffffffffffffffffffffffffffff1681565b60008060009054906101000a900473ffffffffffffffffffffffffffffffffffffffff1673ffffffffffffffffffffffffffffffffffffffff163373ffffffffffffffffffffffffffffffffffffffff1614905090565b606060008060006060600060026000886000191660001916815260200190815260200160002090508060000181600101548260020154836003015484600401848054600181600116156101000203166002900480601f0160208091040260200160405190810160405280929190818152602001828054600181600116156101000203166002900480156109605780601f1061093557610100808354040283529160200191610960565b820191906000526020600020905b81548152906001019060200180831161094357829003601f168201915b50505050509450808054806020026020016040519081016040528092919081815260200182805480156109b657602002820191906000526020600020905b8154600019168152602001906001019080831161099e575b50505050509050955095509550955095505091939590929450565b60006729a2241af62c000034141515610a52576040517f08c379a00000000000000000000000000000000000000000000000000000000081526004018080602001828103825260208152602001807f596f7520686176656e27742073656e742065786163746c79203320657468657281525060200191505060405180910390fd5b600260008760001916600019168152602001908152602001600020905060a0604051908101604052808681526020018581526020018481526020018381526020016000604051908082528060200260200182016040528015610ac35781602001602082028038833980820191505090505b508152508160050160003373ffffffffffffffffffffffffffffffffffffffff1673ffffffffffffffffffffffffffffffffffffffff1681526020019081526020016000206000820151816000019080519060200190610b24929190610f34565b506020820151816001019080519060200190610b41929190610f34565b50604082015181600201556060820151816003019080519060200190610b68929190610f34565b506080820151816004019080519060200190610b85929190610fb4565b50905050505050505050565b6000809054906101000a900473ffffffffffffffffffffffffffffffffffffffff1673ffffffffffffffffffffffffffffffffffffffff163373ffffffffffffffffffffffffffffffffffffffff16141515610bec57600080fd5b8060019080519060200190610c02929190611007565b5050565b606080606080606080606080600080600380549050604051908082528060200260200182016040528015610c495781602001602082028038833980820191505090505b509550600380549050604051908082528060200260200182016040528015610c805781602001602082028038833980820191505090505b509450600380549050604051908082528060200260200182016040528015610cb75781602001602082028038833980820191505090505b509350600380549050604051908082528060200260200182016040528015610cee5781602001602082028038833980820191505090505b509250600091505b600380549050821015610de95760026000600384815481101515610d1657fe5b9060005260206000200154600019166000191681526020019081526020016000209050600382815481101515610d4857fe5b90600052602060002001548683815181101515610d6157fe5b90602001906020020190600019169081600019168152505080600101548583815181101515610d8c57fe5b906020019060200201818152505080600201548483815181101515610dad57fe5b906020019060200201818152505080600301548383815181101515610dce57fe5b90602001906020020181815250508180600101925050610cf6565b85858585995099509950995050505050505090919293565b6000809054906101000a900473ffffffffffffffffffffffffffffffffffffffff1673ffffffffffffffffffffffffffffffffffffffff163373ffffffffffffffffffffffffffffffffffffffff16141515610e5c57600080fd5b60a060405190810160405280868152602001858152602001848152602001838152602001828152506002600088600019166000191681526020019081526020016000206000820151816000019080519060200190610ebb929190610f34565b506020820151816001015560408201518160020155606082015181600301556080820151816004019080519060200190610ef6929190610fb4565b509050506003869080600181540180825580915050906001820390600052602060002001600090919290919091509060001916905550505050505050565b828054600181600116156101000203166002900490600052602060002090601f016020900481019282601f10610f7557805160ff1916838001178555610fa3565b82800160010185558215610fa3579182015b82811115610fa2578251825591602001919060010190610f87565b5b509050610fb09190611087565b5090565b828054828255906000526020600020908101928215610ff6579160200282015b82811115610ff5578251829060001916905591602001919060010190610fd4565b5b50905061100391906110ac565b5090565b828054600181600116156101000203166002900490600052602060002090601f016020900481019282601f1061104857805160ff1916838001178555611076565b82800160010185558215611076579182015b8281111561107557825182559160200191906001019061105a565b5b5090506110839190611087565b5090565b6110a991905b808211156110a557600081600090555060010161108d565b5090565b90565b6110ce91905b808211156110ca5760008160009055506001016110b2565b5090565b905600a165627a7a72305820ca35da78b47c12b3cfbeb9a49785600ad46b951b8c05c62b78d6257a2e71ed0b0029",
  "source": "pragma solidity ^0.4.22;\n\n\ncontract Certifier {\n  address public owner;\n  string public name;\n  mapping(bytes32 => Course) courses;\n  bytes32[] courses_codes;\n\n  struct Course {\n      string name;\n      uint cost;\n      uint duration;\n      uint threshold;\n      bytes32[] codes;\n      mapping(address => Student) students;\n  }\n\n  struct Student {\n      string fname;\n      string lname;\n      uint age;\n      string email;\n      bytes32[] codes;\n  }\n\n  constructor() public {\n    owner = msg.sender;\n  }\n\n  modifier onlyOwner(){\n    require(msg.sender == owner);\n    _;\n  }\n\n  function isOwner() public view returns (bool) {\n    return msg.sender == owner;\n  }\n\n  function setName(string _name) public onlyOwner {\n    name = _name;\n  }\n\n  function getName() public view returns (string) {\n    return name;\n  }\n\n  function addCourse(\n      bytes32 _code,\n      string _name,\n      uint _cost,\n      uint _duration,\n      uint _threshold,\n      bytes32[] _codes) public onlyOwner {\n      courses[_code] = Course({\n          name : _name,\n          cost : _cost,\n          duration : _duration,\n          threshold : _threshold,\n          codes : _codes\n          });\n      courses_codes.push(_code);\n  }\n\n  function getCourse(bytes32 _code) public view  returns (string, uint, uint, uint, bytes32[]) {\n      Course storage course = courses[_code];\n      return (course.name, course.cost, course.duration, course.threshold, course.codes);\n  }\n\n  function getCourses() public view returns (bytes32[], uint[], uint[], uint[]) {\n\n\n      bytes32[] memory codes = new bytes32[](courses_codes.length);\n      //bytes32[] memory names = new bytes32[](courses_codes.length);\n      uint[] memory costs = new uint[](courses_codes.length);\n      uint[] memory durations = new uint[](courses_codes.length);\n      uint[] memory thresholds = new uint[](courses_codes.length);\n\n\n      for (uint i = 0; i < courses_codes.length; i++) {\n          Course storage course = courses[courses_codes[i]];\n          codes[i] = courses_codes[i];\n          //names[i] = course.name;\n          costs[i] = course.cost;\n          durations[i] = course.duration;\n          thresholds[i] = course.threshold;\n      }\n\n      return (codes, costs, durations, thresholds);\n  }\n\n  function subscribe(\n      bytes32 _code,\n      string _fname,\n      string _lname,\n      uint _age,\n      string _email\n  ) public payable {\n      require(msg.value == 3 ether, \"You haven't sent exactly 3 ether\");\n      Course storage course = courses[_code];\n      course.students[msg.sender] = Student({\n          fname : _fname,\n          lname : _lname,\n          age : _age,\n          email : _email,\n          codes : new bytes32[](0)\n          });\n  }\n}\n",
  "sourcePath": "/home/rz/curso_blockchain3/contracts/Certifier.sol",
  "compiler": {
    "name": "solc",
    "version": "0.4.24+commit.e67f0147.Emscripten.clang"
  },
  "schemaVersion": "2.0.1",
  "updatedAt": "2018-11-30T01:35:14.686Z"
}